:020000040800F2
:100000000020002029060008090600080B06000849
:1000100000000000000000000000000000000000E0
:100020000000000000000000000000000D060008B5
:1000300000000000000000000F0600081106000884
:100040007906000879060008790600087906000894
:100050007906000879060008790600087906000884
:100060007906000879060008790600087906000874
:100070007906000879060008790600087906000864
:1000800079060008790600080000000079060008DB
:1000900079060008210200087906000879060008A0
:1000A0007906000879060008790600087906000834
:1000B0007906000800000000790600080000000032
:1000C000002243088B4274D303098B425FD3030A97
:1000D0008B4244D3030B8B4228D3030C8B420DD3AA
:1000E000FF22090212BA030C8B4202D31212090238
:1000F00065D0030B8B4219D300E0090AC30B8B4276
:1001000001D3CB03C01A5241830B8B4201D38B0323
:10011000C01A5241430B8B4201D34B03C01A5241C8
:10012000030B8B4201D30B03C01A5241C30A8B420B
:1001300001D3CB02C01A5241830A8B4201D38B02F6
:10014000C01A5241430A8B4201D34B02C01A52419A
:10015000030A8B4201D30B02C01A5241CDD2C3090C
:100160008B4201D3CB01C01A524183098B4201D388
:100170008B01C01A524143098B4201D34B01C01A73
:10018000524103098B4201D30B01C01A5241C308EB
:100190008B4201D3CB00C01A524183088B4201D35A
:1001A0008B00C01A524143088B4201D34B00C01A46
:1001B0005241411A00D20146524110467047FFE7B2
:1001C00001B5002000F006F802BDC0460029F7D0B6
:1001D00076E770477047C04610B5064C2378002B71
:1001E00007D1054B002B02D0044800E000BF0123DB
:1001F000237010BD0C00002000000000C4060008A1
:10020000044B10B5002B03D00349044800E000BFA5
:1002100010BDC0460000000010000020C406000809
:10022000704772B6FEE7000010B50C480C4B036037
:100230000C4B4360002383600B4AC260036143613F
:100240008033836100F0B4F9002804D1074B802289
:1002500092031A6010BDFFF7E4FFC046280000209B
:10026000004401403F1F0000E703000000E100E000
:1002700010B51A4A136801218B431360174B1B6892
:10028000DB07FBD4164A136801210B431360144BA0
:100290001B689B07FBD5124B1A68F8218A437839F3
:1002A0000A431A605A6870318A435A605A680D4985
:1002B0000A405A605A6803218A435A60084B5B68B7
:1002C0000C221A42FAD1084800F0A6F9032000F0E7
:1002D0001BF8002800D110BDFFF7A3FF002002404B
:1002E00000100240FFF8FFFF00127A0010B500F086
:1002F00033F8FFF7BDFFFFF797FF024800F0CAF899
:10030000FEE7C0462800002010B504000F4B197806
:10031000FA208000FFF7D4FE01000D4B1868FFF7AC
:10032000CFFE00F085F800280DD1032C01D9012063
:100330000AE0013000222100404200F075F8054B30
:100340001C60002000E0012010BDC046000000201D
:10035000080000200400002010B5064A1368102190
:100360000B4313600320FFF7CFFF00F065F8002078
:1003700010BDC04600200240034A1168034B1B78A1
:100380005B1813607047C04670000020000000201A
:1003900070B5002811DB8308134DC0339B005C59F6
:1003A00003221040C000FC3216008640B44389018D
:1003B0000A40824022435A5170BD0F230340083B3C
:1003C0009B0806339B00094A944663445C680322F9
:1003D0001040C000FC3215008540AC4389010A4042
:1003E000824022435A60E7E700E100E000ED00E0D0
:1003F000013880235B0498420FD2094A50600948B3
:10040000036A1B021B0AC02109060B430362002377
:10041000936007331360002070470120FCE7C0465B
:1004200010E000E000ED00E010B5FFF7B1FF10BDF7
:1004300010B5FFF7DDFF10BD82B00A4B99690122AC
:100440001143996199690A400092009ADA69802102
:1004500049050A43DA61DB690B400193019B02B055
:100460007047C0460010024082B00268074B9A42B3
:1004700001D002B07047064B9A69802189020A4375
:100480009A619B690B400193019BF2E70044014094
:10049000001002403D23C35C012B26D13C330222D5
:1004A000C2540268D36801210B43D3600368114A28
:1004B00093420FD08022D20593420BD00E4A934232
:1004C00008D00E4A934205D01A6801210A431A60E7
:1004D00000200BE0996807220A40062A07D01A6814
:1004E00001210A431A60002000E00120704700202B
:1004F000FCE7C046002C01400004004000400140E1
:100500000368244A904206D08022D205904202D04D
:10051000214A904203D1702293434A6813431D4AF3
:10052000904212D08022D20590420ED01A4A9042B8
:100530000BD01A4A904208D0194A904205D0194A65
:10054000904202D0184A904203D1184A1A40CB6810
:100550001343802293434A69134303608B68C36249
:100560000B6883620B4B984208D00D4B984205D024
:100570000C4B984202D00C4B984201D10B6903639B
:10058000012343610269134203D0036901229343AB
:1005900003617047002C014000040040002000402F
:1005A000004001400044014000480140FFFCFFFFC3
:1005B00070B5041E26D03D23C35C002B1CD03D2506
:1005C00002236355210001C9FFF79AFF0123462248
:1005D000A354083AA3540132A3540132A354013264
:1005E000A3540132A3540132A3540132A354013263
:1005F000A3546355002070BD3C330022C254FFF762
:1006000033FFDCE70120F6E7FEE7FEE770477047BF
:1006100010B5FFF7B1FE10BD014B18607047C04622
:1006200008000020704700000D488546FFF7FAFFDC
:100630000C480D490D4A002302E0D458C45004333D
:10064000C4188C42F9D30A4A0A4C002301E0136013
:100650000432A242FBD300F011F8FFF747FEFEE799
:1006600000200020000000200C000020E40600080C
:100670000C00002074000020FEE7000070B500268A
:100680000C4C0D4D641BA410A64209D1002600F0AD
:1006900019F80A4C0A4D641BA410A64205D170BD7E
:1006A000B300EB5898470136EEE7B300EB58984794
:1006B0000136F2E7DC060008DC060008E006000868
:1006C000DC060008F8B5C046F8BC08BC9E4670477A
:0C06D000F8B5C046F8BC08BC9E46704758
:0406DC00010200080F
:0406E000D901000834
:0C06E400010000000400000000127A0079
:0400000508000629C0
:00000001FF
